:100000000C94481A0C94791A0C94791A0C94791A55
:100010000C94791A0C94791A0C94791A0C94791A14
:100020000C94791A0C94791A0C94791A0C94791A04
:100030000C94791A0C94791A0C94791A0C94791AF4
:100040000C94791A0C9477B60C94791A0C94791A4A
:100050000C94791A0C94791A0C9441500C94E44F36
:100060000C94791A0C948A470C94791A0C94791A86
:100070000C94791A0C94791A0C94791A0C94791AB4
:100080000C94791A0C94791A0C94791A0C94791AA4
:100090000C94791A0C94791A0C94791A0C941A41CC
:1000A0000C94791A0C94791A0C94791A0C94791A84
:1000B0000C94791A0C94791A0C94791A0C94791A74
:1000C0000C94791A0C94791A0C94791A0C94791A64
:1000D0000C94791A0C94791A0C94791A0C94791A54
:1000E0000C94791A243427342B342F343334373496
:1000F0002D353B343F3444342D3549344F3453345B
:1001000057345B345F342D35633467346D342D35AB
:10011000733489348B3499349B349D349F34A534A3
:10012000A734A934AB34B534B734B934BB34C13493
:10013000C3342D352D352D352D352D352D352D351A
:100140002D352D352D352D352D352D352D352D359F
:100150002D352D352D352D352D352D352D352D358F
:100160002D352D352D352D352D352D352D352D357F
:100170002D352D352D352D352D352D352D352D356F
:100180002D352D352D352D352D352D352D352D355F
:100190002D352D352D352D352D352D352D352D354F
:1001A0002D352D352D352D352D352D35CD34EE34E0
:1001B000624E654E544E584E5C4E9C4E694E6D4E8E
:1001C000734E774E7B4E814E854E894E9C4E8F4EA0
:1001D000934E974E134F184F1D4F274F314FAA4F35
:1001E0003B4F434F4B4F554F5F4F694F784F824FB7
:1001F000AA4F8C4F964FA04F7E8C7E8C8C8C9A8C05
:10020000B68CC48CD28CE08CF18CA88C084AD73B7D
:100210003BCE016E84BCBFFDC12F3D6C74319ABDD5
:1002200056833DDA3D00C77F11BED9E4BB4C3E91F9
:100230006BAAAABE000000803F05A84CCDB2D44EE8
:10024000B93836A9020C50B9918688083CA6AAAAEA
:100250002ABE000000803F004E414E494E4954598D
:10026000494E46CDCCCC3D0AD7233C17B7D1387781
:10027000CC2B329595E6241FB14F0A000020410097
:1002800000C84200401C4620BCBE4CCA1B0E5AAEE1
:10029000C59D7443617264206572726F723A004E3C
:1002A0006F74205344207072696E74696E67002FFA
:1002B000005344207072696E74696E6720627974AD
:1002C0006520002E0044656C6574696F6E20666160
:1002D000696C65642C2046696C653A200046696C3F
:1002E000652064656C657465643A002E006F706506
:1002F0006E206661696C65642C2046696C653A20E5
:1003000000504944204175746F74756E65206669AC
:100310006E69736865642120507574207468652067
:100320004B702C204B6920616E64204B6420636FFE
:100330006E7374616E747320696E746F20436F6E98
:1003400066696775726174696F6E2E680050494402
:10035000204175746F74756E65206661696C6564A3
:10036000212074696D656F75740020403A006F6BD1
:1003700020543A006F6B20423A00504944204175A6
:10038000746F74756E65206661696C6564212054B4
:10039000656D706572617475726520746F6F206829
:1003A00069676800204B643A2000204B693A2000BE
:1003B000204B703A200020436C61737369632050B6
:1003C000494420002054753A2000204B753A200003
:1003D000206D61783A2000206D696E3A200020641B
:1003E0003A200020626961733A200050494420415C
:1003F00075746F74756E6520737461727400504902
:1004000044204175746F74756E65206661696C6512
:10041000642E204261642065787472756465722070
:100420006E756D6265722E000D0A003F0056657292
:1004300073696F6E20444556000D0A00556E6B6E51
:100440006F776E20636F6D6D616E643A2000544566
:1004500053540D0A002200556E6B6E6F776E206349
:100460006F6D6D616E643A202200456C6563747235
:100470006F6E6963735F746573740041637469764A
:10048000652045787472756465723A2000496E760D
:10049000616C6964206578747275646572005400DB
:1004A00020423A300020423A31006F6B20523A002D
:1004B00020633A0020643A0020693A0020703A0034
:1004C0006F6B002200556E6B6E6F776E20636F6DE1
:1004D0006D616E643A2022006F70656E005452495F
:1004E000474745524544007A5F6D61783A20006F76
:1004F00070656E0054524947474552454400795F44
:100500006D61783A20006F70656E0054524947471C
:100510004552454400785F6D696E3A20005265701F
:100520006F7274696E6720656E6473746F70207388
:100530007461747573005A3A00593A0020436F751C
:100540006E7420583A2000453A005A3A00593A0051
:10055000583A004649524D574152455F4E414D452C
:100560003A4D61726C696E20556C74696D616B6592
:1005700072323B20537072696E7465722F677262BB
:100580006C206D617368757020666F722067656E90
:1005900036204649524D574152455F55524C3A68B4
:1005A0007474703A2F2F6769746875622E636F6D6B
:1005B0002F556C74696D616B65722050524F544FAA
:1005C000434F4C5F56455253494F4E3A312E3020DF
:1005D0004D414348494E455F545950453A556C7416
:1005E000696D616B65722045585452554445525FA0
:1005F000434F554E543A310A0020423A0020453AC2
:1006000000543A003F0020573A0020453A00543A3F
:10061000002042403A0020403A00202F0020423A79
:1006200000202F006F6B20543A002569206D696E01
:100630002C2025692073656300456E642066696C13
:1006400065206C69737400426567696E2066696C29
:1006500065206C6973740043504500435045004366
:1006600050450055504554002020506C616E6E6519
:100670007242756666657242797465733A2000202D
:1006800046726565204D656D6F72793A20004D6147
:1006900079202037203230313800436F6D70696C1B
:1006A00065643A200056657273696F6E2044455642
:1006B00000207C20417574686F723A20004D61798A
:1006C00020203720323031382031353A32323A303A
:1006D0003700204C61737420557064617465643A0E
:1006E0002000312E302E30004D61726C696E20007A
:1006F00020536F667477617265205265736574006C
:10070000205761746368646F672052657365740075
:100710002042726F776E206F757420526573657416
:10072000002045787465726E616C20526573657443
:1007300000506F7765725570007374617274004D6C
:10074000383420582059205A2045006563686F3A94
:1007500000256920686F757273202569206D696EA8
:100760007574657300446F6E65207072696E74698C
:100770006E672066696C65005072696E74657220E0
:1007800073746F707065642064756520746F206584
:1007900072726F72732E20466978207468652065C6
:1007A00072726F7220616E6420757365204D3939E5
:1007B0003920746F20726573746172742E2028540E
:1007C000656D7065726174757265206973207265FC
:1007D0007365742E20536574206974206166746596
:1007E000722072657374617274696E6729006F6B31
:1007F000004E6F204C696E65204E756D62657220EB
:100800007769746820636865636B73756D2C204C21
:10081000617374204C696E653A20004E6F20436806
:1008200065636B73756D2077697468206C696E659C
:10083000206E756D6265722C204C617374204C695A
:100840006E653A2000636865636B73756D206D6932
:10085000736D617463682C204C617374204C696EF5
:10086000653A20004C696E65204E756D6265722098
:100870006973206E6F74204C617374204C696E65CF
:10088000204E756D6265722B312C204C6173742083
:100890004C696E653A20004572726F723A004D31B4
:1008A0003130006572726F722077726974696E6799
:1008B00020746F2066696C6500205A3A0020593A0E
:1008C0000020583A00656E6473746F707320686915
:1008D000743A20006563686F3A00446F6E65207358
:1008E0006176696E672066696C652E006F6B004DDE
:1008F00032390043414E43454C00507265763A20F0
:1009000000000000000000005F000000070007007A
:10091000147F147F14242A7F2A122313086462365A
:10092000495522500005030000001C2241000041EF
:10093000221C00082A1C2A0808083E08080050301B
:100940000000080808080800606000002010080483
:10095000023E5149453E00427F40004261514946B6
:100960002141454B311814127F1027454545393C2C
:100970004A49493001710905033649494936064952
:1009800049291E00363600000056360000000814C3
:1009900022411414141414412214080002015109B4
:1009A00006324979413E7E1111117E7F494949360F
:1009B0003E414141227F4141221C7F494949417FBB
:1009C000090901013E414151327F0808087F004179
:1009D0007F41002040413F017F081422417F404079
:1009E00040407F0204027F7F0408107F3E41414166
:1009F0003E7F090909063E4151215E7F09192946BA
:100A0000464949493101017F01013F4040403F1FB4
:100A10002040201F7F2018207F63140814630304E4
:100A2000780403615149454300007F4141020408B5
:100A3000102041417F000004020102044040404078
:100A400040000102040020545454787F4844443844
:100A50003844444420384444487F38545454180897
:100A60007E090102081454543C7F080404780044B1
:100A70007D40002040443D00007F10284400417F1D
:100A800040007C041804787C08040478384444440A
:100A9000387C14141408081414187C7C0804040806
:100AA0004854545420043F4440203C4040207C1C87
:100AB0002040201C3C4030403C44281028440C502E
:100AC00050503C4464544C44000836410000007FC0
:100AD0000000004136080008082A1C08081C2A08E3
:100AE0000853657474696E67732053746F7265641C
:100AF000002044002049002020204D333031205078
:100B0000005049442073657474696E67733A00201D
:100B10005A0020590020204D323036205800486FAE
:100B20006D65206F666673657420286D6D293A00C7
:100B3000204500205A002058002042002054002068
:100B4000204D323035205300416476616E63656418
:100B5000207661726961626C65733A20533D4D691C
:100B60006E20666565647261746520286D6D2F73F3
:100B7000292C20543D4D696E2074726176656C207D
:100B8000666565647261746520286D6D2F73292C0C
:100B900020423D6D696E696D756D207365676D6589
:100BA0006E742074696D6520286D73292C20583D62
:100BB0006D6178696D756D205859206A65726B207A
:100BC000286D6D2F73292C20205A3D6D6178696D39
:100BD000756D205A206A65726B20286D6D2F732900
:100BE0002C2020453D6D6178696D756D2045206A2A
:100BF00065726B20286D6D2F732900205400202012
:100C00004D323034205300416363656C657261740A
:100C1000696F6E3A20533D616363656C6572617400
:100C2000696F6E2C20543D7265747261637420612B
:100C30006363656C65726174696F6E0020450020A6
:100C40005A0020590020204D3230312058004D618B
:100C500078696D756D20416363656C657261746957
:100C60006F6E20286D6D2F7332293A0020450020C9
:100C70005A0020590020204D3230332058004D6159
:100C800078696D756D206665656472617465732041
:100C9000286D6D2F73293A00204500205A002059F5
:100CA0000020204D39322058005374657073207035
:100CB000657220756E69743A005630313000537495
:100CC0006F7265642073657474696E6773207265F2
:100CD000747269657665640048617264636F646507
:100CE000642044656661756C742053657474696E24
:100CF0006773204C6F61646564006563686F3A00D8
:100D00002200656E717565696E672022002200659C
:100D10006E717565696E6720220000006643008071
:100D20006043000066430000000000000000000077
:100D30000000000000000080604300006643202D9A
:100D400020496E76616C696420657874727564659B
:100D500072206E756D62657220210000000000181F
:100D6000070100A807140030082800B8083C003824
:100D7000095000C0096400480A7800C80A8C00487D
:100D80000BA000C80BB400480CC800C80CDC004025
:100D90000DF000C00D0401380E1801B00E2C012812
:100DA0000F4001A00F54011810680188107C010049
:100DB0001190013013F401481558024017BC022865
:100DC000192003F01A8403A81CE803401E4C043ABF
:100DD00020457874727564657220737769746368EE
:100DE0006564206F66662E204D415854454D502055
:100DF0007472696767657265642021003A204578DE
:100E000074727564657220737769746368656420B1
:100E10006F66662E204D494E54454D5020747269C0
:100E200067676572656420210054656D7065726145
:100E300074757265206865617465642062656420FC
:100E40007377697463686564206F66662E204D4110
:100E50005854454D50207472696767657265642007
:100E60002121004572726F723A00000021002400B7
:100E700027002A002D00300033000101000004018A
:100E800007010A0100002200250028002B002E0087
:100E90003100340002010000050108010B010505C5
:100EA0000505070508080808020202020A0A0808E0
:100EB000040404040101010101010101030303030E
:100EC00003030303040707070C0C0C0C0C0C0C0C9D
:100ED0000202020206060606060606060B0B0B0BAE
:100EE0000B0B0B0B010210202008081020401020D3
:100EF00040800201020108040201010204081020DE
:100F000040808040201008040201800402018040DB
:100F10002010080402010804020101020408102044
:100F20004080010204081020408000000A0B0209E2
:100F30000C0D0E0807030401000000000000000073
:100F400000000000000000000000000000000000A1
:100F5000000000000000121110000000000000005E
:100F60000000000000000000000000000000000081
:100F700066726F6D207468652053442063617264EB
:100F8000004C6F61646564206D6174657269616CA9
:100F900073004F6B006469616D6574657200666C07
:100FA0006F770066616E5F7370656564006265648B
:100FB0005F74656D70657261747572650074656DDE
:100FC0007065726174757265006E616D65005B6D50
:100FD0006174657269616C5D00466F756E64206F47
:100FE0006E20636172642E004E6F206578706F72A0
:100FF000742066696C650052656164696E67206380
:101000006172642E2E2E00506C6561736520696ECE
:10101000736572742063617264004E6F2053442DB7
:101020004341524421004578706F727420746F20E0
:10103000534400496D706F72742066726F6D205357
:101040004400437573746F6D697A65003C205245A6
:101050005455524E00250046616E3A20004300432D
:10106000002500466C6F773A006D6D004C6F61642F
:101070007320616C6C206D6174657269616C7300C2
:10108000536176657320616C6C206D617465726963
:10109000616C73004D6F64696679207468652073B4
:1010A000657474696E6773004D4154455249414CF3
:1010B0000053656C6563746564206D617465726965
:1010C000616C3A004F4B00466C6F772025003F3F24
:1010D0003F0053746F726520617320707265736591
:1010E000740046616E004469616D65746572004804
:1010F0006561746564206275696C64706C617465A7
:101100000054656D7065726174757265003C2052A3
:10111000455455524E00250025006D6D0043004397
:101120000025004D6174657269616C20666C6F7793
:1011300000250046616E207370656564006D6D006A
:101140004D6174657269616C204469616D65746597
:10115000720043004275696C64706C617465205460
:10116000656D702E00430054656D70657261747515
:101170007265004D4154455249414C003C20524556
:101180005455524E004E6577207072657365740039
:10119000505245534554530043504500414253007B
:1011A000504C41004D383400473238004732382027
:1011B0005A3000473238205830205930004731200B
:1011C0004625692045300047393220452569004DC4
:1011D00034303100446F6E65207072696E74696ED0
:1011E000672066696C6500746F20696E7365727440
:1011F000206D6174657269616C2E00746865206E83
:101200006578742073746570206973007468652054
:101210006275696C64706C617465004E6F772074E0
:10122000686174207765206C6576656C6564003153
:10123000312F323100434F4E54494E554500556CC5
:1012400074696D616B6572322E00696E73657274BC
:1012500020696E2074686973006D617465726961DC
:101260006C20796F752077696C6C004E6578742CF2
:101270002073656C656374207468650031322F32A9
:10128000310052454144590053656C6563742074C4
:101290006865206D6174657269616C0020617320FE
:1012A0006D6174657269616C2C0031332F323100CD
:1012B0004D4154455249414C00697320746869732B
:1012C0002072696768743F00596F752068617665A0
:1012D0002063686F73656E0031342F3231004E4FDA
:1012E00000594553006974206973207573696E67EE
:1012F0002E006F66206D6174657269616C006B6EA3
:101300006F77732077686174206B696E64004E6F2D
:101310007720796F757220556C74696D616B657299
:10132000320031352F323100434F4E54494E55452E
:10133000006D6174657269616C206C6F6164696EC7
:1013400067007072696E74686561642068656174B5
:10135000696E6720666F7200506C656173652077F7
:101360006169742C0031362F32310061626F76650D
:1013700020746865206172726F772E00796F7572C4
:1013800020556C74696D616B6572322C0066726FEA
:101390006D207468652072656172206F6600496E09
:1013A00073657274206E6577206D61746572696112
:1013B0006C0031372F323100434F4E54494E554562
:1013C000004C6F6164696E67206D6174657269615C
:1013D0006C2E2E2E0031382F32310066726F6D2048
:1013E0006E6F7A7A6C652E2E2E006D61746572694F
:1013F000616C20657869747300507573682062753C
:1014000074746F6E207768656E0031392F32310049
:10141000434F4E54494E5545006D616B6520612028
:101420003344205072696E74210049276D20726523
:10143000616479206C657427730032302F3231007B
:1014400041524520594F552052454144593F00745F
:101450006F207072696E742069742100616E64205F
:1014600070726573732074686520627574746F6E32
:10147000006F6E207468652053442D6361726400B0
:1014800053656C6563742061207072696E742066A8
:10149000696C650032312F3231004C45542753209E
:1014A0005052494E540052656164696E6720636111
:1014B00072642E2E2E0032312F323100796F757208
:1014C00020556C74696D616B6572322E2E2E00741E
:1014D0006861742063616D65207769746800506C81
:1014E0006561736520696E736572742053442D6362
:1014F0006172640032312F32310052455455524EE0
:1015000000414456414E434544004255494C442D08
:101510007C504C415445003F3F3F00466163746F2F
:1015200072792072657365740052756E74696D65A9
:101530002073746174730056657273696F6E004D29
:101540006F74696F6E2073657474696E677300528F
:10155000657472616374696F6E2073657474696E0B
:101560006773005365742066616E207370656564EF
:10157000004D6F7665206D6174657269616C00491C
:101580006E73657274206D6174657269616C00526E
:1015900061697365206275696C64706C6174650063
:1015A0004C6F776572206275696C64706C617465EC
:1015B00000486F6D652068656164004865617475F9
:1015C00070206275696C64706C6174650048656157
:1015D000747570206E6F7A7A6C65004C4544207388
:1015E000657474696E6773003C2052455455524EC1
:1015F0000056657273696F6E20444556002500439E
:1016000000432F004300432F002500473238205865
:101610003020593000250046616E20737065656486
:101620000047312046256920582569205925690041
:101630004732382058205900473120462569205A22
:10164000343000473238205A004D383400473238A1
:10165000205A004D3834004732382058205900476E
:101660003238205A00414456414E4345440043001D
:10167000432F00436C69636B20746F20726574752F
:10168000726E004E6F7A7A6C652074656D7065724B
:1016900061747572653A004300432F00436C6963BF
:1016A0006B20746F2072657475726E00526F746176
:1016B000746520746F2065787472756465004E6F70
:1016C0007A7A6C652074656D706572617475726587
:1016D0003A00507265706172696E6720746F207095
:1016E00072696E743A0048656174696E672075703E
:1016F0002E2E2E0041424F52540054554E45005458
:10170000696D65206C6566740054696D65206C6553
:10171000667420756E6B6E6F776E004300430048F1
:10172000656174696E67206275696C64706C617460
:1017300065004300430048656174696E670050723C
:10174000696E74696E673A005041555345005455AF
:101750004E450054554E45004348414E47457C4D4B
:101760004154455249414C00524553554D457C50DA
:1017700052494E5400756C74696D616B65722E63CD
:101780006F6D2F4552303800476F20746F3A0072EA
:10179000656164696E672053442D63617264210042
:1017A0004572726F72207768696C650052455455B6
:1017B000524E20544F204D41494E006F66207072AA
:1017C000696E74696E672061726561005472696543
:1017D00064207072696E74696E67206F757400455D
:1017E00052524F523A0052455455524E20544F20B7
:1017F0004D41494E0066726F6D2074686520736CB0
:10180000696365722E0073657474696E6720776909
:1018100074682073657474696E67006F76657272A0
:10182000696465206D616368696E650054686973F9
:101830002066696C652077696C6C0043414E4345B6
:101840004C00434F4E54494E55450041626F7274EF
:1018500020746865207072696E743F004E4F0059A5
:1018600045530043004320005072696E7465722036
:10187000636F6F6C696E6720646F776E00424143DF
:101880004B20544F204D454E5500746865207072B2
:10189000696E742E00596F752063616E2072656DDC
:1018A0006F7665005072696E742066696E69736840
:1018B0006564004241434B20544F204D454E550036
:1018C0004C4544204272696768746E6573730052B8
:1018D000657472616374696F6E004D6174657269DD
:1018E000616C20666C6F770046616E207370656571
:1018F00064004275696C64706C6174652074656D18
:10190000702E0054656D7065726174757265005358
:10191000706565640041626F7274003C20524554EA
:1019200055524E002500250025004300430043008A
:10193000430025004300432F00436C69636B207410
:101940006F2072657475726E004E6F7A7A6C6520C6
:1019500074656D70657261747572653A0025004238
:1019600072696768746E6573730025004D617465F4
:101970007269616C20666C6F7700250046616E208D
:1019800073706565640025005072696E7420737011
:101990006565640054554E45005265747261637408
:1019A000206C656E677468003F3F3F00526574723B
:1019B000616374207370656564003C205245545522
:1019C000524E006D6D2F736563006D6D006D6D2F50
:1019D000736563005265747261637420737065652A
:1019E00064006D6D0052657472616374206C656E85
:1019F0006774680052455452414354494F4E004D5C
:101A0000363031205835205935205A2569204C254B
:101A100069004300432F00436C69636B20746F209F
:101A200072657475726E004275696C64706C617475
:101A3000652074656D702E3A0056657273696F6E1D
:101A400020444556004D617920203720323031380E
:101A50002031353A32323A31300052657475726E47
:101A6000006D00204D61743A003A005072696E7446
:101A7000696E673A003A004D616368696E65206F70
:101A80006E20666F723A0052657475726E00746FE4
:101A90002064656661756C743F00526573657420DF
:101AA00065766572797468696E67004E4F005945B6
:101AB000530052657472616374206C656E6774685C
:101AC000003F3F3F0052657472616374207370651C
:101AD0006564003C2052455455524E006D6D2F7385
:101AE0006563006D6D006D6D2F73656300526574E5
:101AF00072616374207370656564006D6D0052657A
:101B00007472616374206C656E677468005245542A
:101B100052414354494F4E003F3F3F00437572725C
:101B2000656E7420450043757272656E74205A00AC
:101B300043757272656E7420582F59004D6178207C
:101B40007370656564205A004D6178207370656517
:101B5000642059004D6178207370656564205800D9
:101B6000582F59204A65726B00416363656C65723A
:101B70006174696F6E003C2052455455524E006DA1
:101B800041006D41006D41006D6D2F736563006D07
:101B90006D2F736563006D6D2F736563006D6D2F21
:101BA000736563006D6D2F7365635E32006D410078
:101BB00043757272656E742045006D410043757205
:101BC00072656E74205A006D410043757272656EC5
:101BD0007420582F59006D6D2F736563004D617827
:101BE000207370656564205A006D6D2F7365630006
:101BF0004D61782073706565642059006D6D2F7399
:101C00006563004D61782073706565642058006DD0
:101C10006D2F73656300582F59204A65726B003031
:101C2000306D6D2F7365635E3200416363656C6573
:101C3000726174696F6E004D4F54494F4E003F3FC3
:101C40003F0020476C6F77207768656E20646F6E69
:101C50006500204F6E207768696C65207072696E30
:101C600074696E670020416C77617973204F6666F6
:101C70000020416C77617973204F6E004272696772
:101C800068746E657373003C2052455455524E0083
:101C9000250025004272696768746E657373004C95
:101CA0004544004732382058302059300047312011
:101CB0004625692058256920592569004732382072
:101CC00058302059300052455455524E0053455417
:101CD00054494E4753004348414E474500666F7292
:101CE000206D6174657269616C2072656D6F7661DB
:101CF0006C0048656174696E67207072696E746803
:101D00006561640053442063617264206F6B006FEF
:101D100070656E526F6F74206661696C65640076E1
:101D20006F6C756D652E696E6974206661696C658E
:101D300064004572726F723A00534420696E697490
:101D4000206661696C006563686F3A004D3234004B
:101D50004D3233202573006175746F25692E67003D
:101D60002073656300206D696E0020686F757200D6
:101D700020686F75727300627574746F6E20746F73
:101D800020636F6E74696E756500556C74696D6162
:101D90006B657221205072657373207468650073DF
:101DA000746172747570206F6620796F7572005758
:101DB000656C636F6D6520746F207468652066695B
:101DC00072737400312F323100434F4E54494E55D7
:101DD0004500473120462569205A25692058256944
:101DE0002059256900473238205A30205830205970
:101DF00030006275696C64706C6174652E006F668A
:101E00002061646A757374696E6720796F757200FA
:101E10007468726F756768207468652070726F638C
:101E200065737300492077696C6C20677569646518
:101E300020796F750043414E43454C00434F4E544B
:101E4000494E554500473120462569205A256900ED
:101E5000473238205A3000612066697273742072EC
:101E6000756E2077697A6172642E0077616C6B20E1
:101E7000796F75207468726F756768006669727330
:101E800074207374617274757020492077696C6C6A
:101E900000426563617573652074686973206973B6
:101EA0002074686500322F323100434F4E54494E42
:101EB000554500473120462569205A256920582577
:101EC00069205925690047323820583020593000A0
:101ED000676F696E6720746F20646F207468617427
:101EE000206E6F772E0061646A7573746D656E7411
:101EF000732C20776520617265007765206E6565BB
:101F00006420746F20646F20736F6D650041667488
:101F10006572207472616E73706F72746174696F30
:101F20006E00332F323100434F4E54494E55450019
:101F3000473120462569205A30004731204625691F
:101F400020582569205925690047312046256920F8
:101F50005A350066726F6D20746865206275696C11
:101F600064706C6174652E0061206D696C6C696DC4
:101F700065746572206177617900756E74696C2093
:101F8000746865206E6F7A7A6C6520697300526F91
:101F9000746174652074686520627574746F6E0076
:101FA000342F323100434F4E54494E554500434F74
:101FB0004E54494E554500473120462569205A3038
:101FC0000047312046256920582569205925690098
:101FD000473120462569205A350066726F6D20749E
:101FE0006865206275696C64706C6174652E006947
:101FF000732061206D696C6C696D65746572206118
:102000007761790073637265772074696C6C2074F2
:102010006865206E6F7A7A6C65005475726E206CFC
:10202000656674206275696C64706C6174650035F6
:102030002F323100434F4E54494E55450066726F62
:102040006D20746865206275696C64706C6174657C
:102050002E0069732061206D696C6C696D65746513
:102060007220617761790073637265772074696C9F
:102070006C20746865206E6F7A7A6C650054757296
:102080006E207269676874206275696C64706C6137
:10209000746500362F323100434F4E54494E55453A
:1020A00000473120462569205A3000473120462517
:1020B000692058256920592569004731204625693E
:1020C000205A3500746865206275696C64706C61B3
:1020D0007465206C6576656C2E0070617065722089
:1020E000746F2066696E652D74756E65006E6F770E
:1020F000207573652061207368656574206F6600C4
:1021000052657065617420746869732073746570BA
:102110002C2062757400372F323100434F4E5449E2
:102120004E55450062697420726573697374616EFF
:1021300063652E00756E74696C20796F7520666515
:10214000656C2061006275696C64706C61746520F7
:10215000616E64206E6F7A7A6C6500536C69646599
:102160002061207061706572206265747765656EAC
:1021700000382F323100434F4E54494E55450043ED
:102180004F4E54494E554500746865206C65667421
:1021900020636F726E65722E2E2E0052657065611F
:1021A00074207468697320666F7200392F323100B1
:1021B000434F4E54494E554500473238205A30005F
:1021C00074686520726967687420636F726E6572E7
:1021D0002E2E2E005265706561742074686973201C
:1021E000666F720031302F323100434F4E54494EEA
:1021F000554500444F4E45004D3834004731204688
:1022000031323030302058313130205931300050A7
:1022100072696E74696E67207769746820555342DD
:102220002E2E2E00756C74696D616B65722E636F56
:102230006D2F4552303700476F20746F3A00582099
:102240006F722059207377697463682073747563A3
:102250006B00756C74696D616B65722E636F6D2FA9
:102260004552303700476F20746F3A0058206F7224
:102270002059207377697463682062726F6B656E92
:1022800000756C74696D616B65722E636F6D2F459F
:1022900052303600476F20746F3A005A20737769C6
:1022A00074636820737475636B00756C74696D6119
:1022B0006B65722E636F6D2F4552303500476F206E
:1022C000746F3A005A207377697463682062726F82
:1022D0006B656E00756C74696D616B65722E636FF2
:1022E0006D2F4552303400476F20746F3A005361B0
:1022F00066657479206369726375697400756C74BE
:10230000696D616B65722E636F6D2F4552303300BE
:10231000476F20746F3A004865617465722065727A
:10232000726F7200756C74696D616B65722E636F8C
:102330006D2F4552303200476F20746F3A0054655C
:102340006D702073656E736F722042454400756C2A
:1023500074696D616B65722E636F6D2F45523031FC
:1023600000476F20746F3A0054656D702073656E7E
:10237000736F72004552524F52202D2053544F50CC
:10238000504544004D41494E54454E414E43450051
:102390004D4154455249414C005052494E54007CE5
:1023A0003C3E5E2B3D3F2F5B5D3B2C2A225C002098
:1023B000746F6F206C6F6E672065787472757369C7
:1023C0006F6E2070726576656E7465640020636F51
:1023D0006C6420657874727573696F6E20707265B5
:1023E00076656E746564006563686F3A0050726963
:1023F0006E7465722068616C7465642E206B696C04
:102400006C28292063616C6C656421005072696ED0
:102410007465722073746F707065642064756520D4
:10242000746F206572726F72732E20466978207403
:102430006865206572726F7220616E6420757365C5
:10244000204D39393920746F20726573746172744C
:102450002E202854656D70657261747572652069EF
:10246000732072657365742E20536574206974201F
:1024700061667465722072657374617274696E67E7
:1024800029004D32313820496E76616C69642065CF
:102490007874727564657220004D31303920496E50
:1024A00076616C6964206578747275646572200069
:1024B0004D31303520496E76616C696420657874E1
:1024C000727564657220004D31303420496E76613A
:1024D0006C69642065787472756465722000456E5D
:1024E0006473746F70207374696C6C2070726573A0
:1024F000736564206166746572206261636B696EE6
:1025000067206F66662E20456E6473746F7020734B
:102510007475636B3F000000E0400000E040000085
:10252000E040456E6473746F70206E6F742070723B
:10253000657373656420616674657220686F6D6988
:102540006E6720646F776E2E20456E6473746F70B3
:102550002062726F6B656E3F00456E6473746F70BE
:10256000206E6F7420707265737365642061667489
:10257000657220686F6D696E6720646F776E2E20BC
:10258000456E6473746F702062726F6B656E3F008E
:10259000FF010100006643008060430000664300C5
:1025A000002110422063308440A550C660E77008C7
:1025B0008129914AA16BB18CC1ADD1CEE1EFF1314E
:1025C00012100273325222B5529442F772D6623917
:1025D0009318837BB35AA3BDD39CC3FFF3DEE3629E
:1025E00024433420040114E664C774A44485546A67
:1025F000A54BB528850995EEE5CFF5ACC58DD5532E
:1026000036722611163006D776F6669556B4465BB6
:10261000B77AA719973887DFF7FEE79DD7BCC7C4FD
:1026200048E5588668A7784008611802282338CC06
:10263000C9EDD98EE9AFF9488969990AA92BB9F58D
:102640005AD44AB77A966A711A500A333A122AFD56
:10265000DBDCCBBFFB9EEB799B588B3BBB1AABA65D
:102660006C877CE44CC55C222C033C600C411CAEA6
:10267000ED8FFDECCDCDDD2AAD0BBD688D499D976D
:102680007EB66ED55EF44E133E322E511E700E9FF6
:10269000FFBEEFDDDFFCCF1BBF3AAF599F788F88BD
:1026A00091A981CAB1EBA10CD12DC14EF16FE1808E
:1026B00010A100C230E3200450254046706760B985
:1026C000839893FBA3DAB33DC31CD37FE35EF3B1DE
:1026D000029012F322D2323542145277625672EAD5
:1026E000B5CBA5A89589856EF54FE52CD50DC5E22E
:1026F00034C324A01481046674476424540544DB65
:10270000A7FAB79987B8975FE77EF71DC73CD7D37D
:1027100026F2369106B01657667676154634564C34
:10272000D96DC90EF92FE9C899E9898AB9ABA944CD
:1027300058654806782768C018E1088238A3287DC4
:10274000CB5CDB3FEB1EFBF98BD89BBBAB9ABB751D
:102750004A545A376A167AF10AD01AB32A923A2E94
:10276000FD0FED6CDD4DCDAABD8BADE89DC98D266D
:102770007C076C645C454CA23C832CE01CC10C1FA4
:10278000EF3EFF5DCF7CDF9BAFBABFD98FF89F17BD
:102790006E367E554E745E932EB23ED10EF01E3CC8
:1027A000204241434B003C2052455455524E004E6E
:1027B0006F20696E666F20617661696C61626C651D
:1027C000006D006D004D6174657269616C3A2000A6
:1027D00054696D653A20003B4D4154455249414C86
:1027E0003A003B54494D453A00466F6C64657200AF
:1027F00043616E6E6F7420656E74657220737562CE
:102800006469723A200053442043415244004731E6
:102810002046313230303020583520593130004791
:102820003238003B464C41564F523A556C7469471A
:10283000436F6465003B464C41564F523A556C74A9
:102840006947436F6465004E6F2066696C6573204D
:10285000666F756E6421004F4B004F4B00526561EF
:1028600064696E6720636172642E2E2E00506C6561
:1028700061736520696E73657274206361726400B0
:102880004E6F2053442D43415244210080150606CB
:102890000606FEFEFEFEFC00000000000000FCFE3E
:1028A000FEFEFC0000000EFEFEFEFE0000E0FCFE50
:1028B000FEFCE0E0000000CECECE000000C0C0C0B4
:1028C000C0C0C08000000000000080C0C0800000C8
:1028D000000000008080C0C0C0C0C0C0C0808000B8
:1028E00000000006FEFEFEFE0000000080C0C0C02A
:1028F0000000000000008080C0C0C0808080000018
:102900000000C0C0C0C00080C0C0C0C080000000C7
:1029100000007FFFFFFFFF80000000000080FFFF3E
:10292000FFFFFF00000000FFFFFFFF000000FFFFB0
:10293000FFFF0000000000FFFFFF00000081F1FF2B
:10294000FF3F0F3FFFFCF0F0FCFF3F0F3FFFFEF8A3
:1029500080000000C1E1F1F17131010183FFFFFF4F
:10296000FC000000FFFFFFFF000C3EFFFFF7C3016C
:10297000000000FCFEFF8703113131333F3F3F1E53
:10298000000001FFFFFFFF0703010101010000003C
:10299000000000010307070F0F0F0F0F0F0F0707AE
:1029A000070F0F06000000070F0F07000000070FBA
:1029B0000F0700000000000F0F0F0000060F0F07A9
:1029C0000100000001070F0F070100000001070FC1
:1029D0000F06000003070F0F0E0E060703070F0F69
:1029E00007000000070F0F0700000000030F0F0F84
:1029F000060000000307070F0E0E0E0E0E0E060057
:102A00000000000F0F0F0F000000000000004361E6
:102A10006E6E6F74206F70656E207375626469727C
:102A20000057726974696E6720746F2066696C65FF
:102A30003A20002E006F70656E206661696C6564D7
:102A40002C2046696C653A20002E006F70656E2060
:102A50006661696C65642C2046696C653A200046A5
:102A6000696C652073656C656374656400205369E7
:102A70007A653A200046696C65206F70656E656402
:102A80003A20002E006F70656E206661696C656487
:102A90002C2046696C653A200024F4D43050C38E53
:102AA00020C2A24017828B7011127A910D816CD9CD
:102AB0000AA861E108C7586607615143061E4B5DCD
:102AC00005C145A7041A411104093D980371393124
:102AD000034036DB0265339102D4305402802E1D50
:102AE00002632CEE01752AC501B028A001102781D0
:102AF000018F2564012B244B01E0223401AC211FFE
:102B0000018D200D01801FFC00841EED00971DDF4C
:102B100000B81CD200E61BC600201BBC00641AB221
:102B200000B219A8000A19A0006A189900D11791DB
:102B30000040178B00B516840031167E00B315795E
:102B4000003A157300C7146F0058146A00EE13663C
:102B5000008813630025135E00C7125B006C1257D8
:102B60000015125400C111510070114F0021114B7A
:102B700000D61049008D1047004610440002104254
:102B800000C00F4000800F3E00420F3C00060F3B8C
:102B900000CB0E3800930E37005C0E3500270E3444
:102BA00000F30D3200C10D3100900D3000600D2E8C
:102BB00000320D2D00050D2C00D90C2B00AE0C2978
:102BC00000850C29005C0C2700350C27000E0C2614
:102BD00000E80B2400C40B2400A00B23007D0B2372
:102BE000005A0B2100390B2100180B2000F80A1F96
:102BF00000D90A1E00BB0A1E009D0A1D00800A1D86
:102C000000630A1C00470A1B002C0A1B00110A1A49
:102C100000F7091A00DD091900C4091900AB0919E8
:102C200000920917007B091800630917004C091668
:102C30000036091600200916000A091500F50815C6
:102C400000E0081400CC081400B8081400A408140C
:102C500000900813007D0812006B0813005808123A
:102C60000046081200340811002308110012081150
:102C70000001081100F0071000E0071000D0071055
:102C800000C0071000B0070F00A107100091070E49
:102C90000083070F0074070F0065070E0057070E2B
:102CA0000049070E003B070D002E070E0020070D00
:102CB0000013070D0006070D00F9060C00ED060DC8
:102CC00000E0060C00D4060C00C8060C00BC060C84
:102CD00000B0060C00A4060B0099060C008D060B34
:102CE0000082060B0077060B006C060B0061060ADB
:102CF0000057060B004C060A0042060A0038060A76
:102D0000002E060A0024060A001A060A0010060908
:102D10000007060A00FD050900F4050900EB050996
:102D200000E2050900D9050900D0050900C7050919
:102D300000BE050900B5050800AD050800A5050998
:102D4000009C050800940508008C0508008405080F
:102D5000007C050800740508006C0507006505087F
:102D6000005D050700560508004E050700470507EA
:102D7000004005080038050700310507002A05074F
:102D800000230507001C050600160507000F0507B0
:102D9000000805060002050700FB040600F504070D
:102DA00000EE040600E8040600E2040700DB040667
:102DB00000D5040600CF040600C9040600C30406BB
:102DC00000BD040600B7040600B1040500AC04060B
:102DD00000A6040600A00405009B04060095040557
:102DE00000900406008A040500850405008004069E
:102DF000007A04050075040500700405006B0405E5
:102E00000066040500610405005C04050057040524
:102E100000520405004D0405004804050043040564
:102E2000003E0404003A04050035040500300404A3
:102E3000002C04050027040400230405001E0404DC
:102E4000001A04040016040500110404000D040413
:102E500000090405000404040000040400FC030449
:102E600000F8030400F4030400F0030400EC03047E
:102E700000E8030400E4030400E0030400DC0304AE
:102E800000D8030400D4030400D0030400CC0304DE
:102E900000C8030300C503030024F404D9201BC4A5
:102EA0000C5C0E9804C4095F0265077101F405F912
:102EB00000FB04B30048048700C1036900580355B0
:102EC0000003034500BE023A008402310053022A87
:102ED000002902250004022000E4011C00C8011999
:102EE00000AF011700980114008401130071011054
:102EF000006101100051010E0043010D0036010B6D
:102F0000002B010B0020010B00150109000C010929
:102F10000003010800FB000800F3000800EB0007B5
:102F200000E4000600DE000600D8000600D200061D
:102F300000CC000500C7000500C2000500BD00046C
:102F400000B9000400B5000400B1000400AD0004A5
:102F500000A9000400A5000300A20003009F0004D4
:102F6000009B0003009800030095000200930003FB
:102F700000900003008D0002008B00030088000217
:102F8000008600020084000300810002007F00022E
:102F9000007D0002007B0002007900020077000142
:102FA000007600020074000200720001007100024D
:102FB000006F0002006D0001006C0002006A000159
:102FC0000069000200670001006600010065000161
:102FD0000064000200620001006100010060000165
:102FE000005F0002005D0001005C0001005B000169
:102FF000005A00010059000100580001005700016B
:10300000005600010055000100540001005300006B
:103010000053000100520001005100010050000166
:10302000004F0001004E0000004E0001004D000165
:10303000004C0001004B0000004B0001004A000161
:10304000004900010048000000480001004700015D
:103050000046000000460001004500000045000158
:103060000044000100430000004300010042000052
:103070000042000100410000004100010040000149
:10308000003F0000003F0001003E0000003E000144
:10309000003D0000003D0001003C0000003C00003D
:1030A000003C0001003B0000003B0001003A000032
:1030B000003A00010039000000390001003800002A
:1030C0000038000000380001003700000037000120
:1030D0000036000000360000003600010035000018
:1030E000003500000035000100340000003400000D
:1030F0000034000100330000003300000033000101
:1031000000320000003200000032000100310000F7
:1031100000310000003100010030000000300000EC
:1031200000300001002F0000002F0000002F0000E1
:10313000002F0001002E0000002E0000002E0001D4
:10314000002D0000002D0000002D0000002D0001CA
:10315000002C0000002C0000002C0000002C0001BE
:10316000002B0000002B0000002B0000002B0001B2
:10317000002A0000002A0000002A0000002A0001A6
:10318000002900000029000000290000002900009B
:10319000002900010028000000280000002800008D
:1031A0000028000000280001002700000027000080
:1031B0000027000000270000002700010026000073
:1031C0000026000000260000002600000026000166
:1031D000002500000025000000250000002500005B
:1031E000002500000025000100240000002400004C
:1031F000002400000024000000240001002300003F
:103200000023000000230000002300000023000032
:103210000023000000230001002200000022000023
:103220000022000000220000002200000022000115
:10323000002100000021000000210000002100000A
:1032400000210000002100000021000100200000FA
:1032500000200000002000000020000000200000EE
:10326000002000000020000000200001001F0000DE
:10327000001F0000001F0000001F0000001F0000D2
:10328000001F0000001F0001001E0000001E0000C3
:10329000001E0000001E0000005265766572736912
:1032A0006E67206D6174657269616C0052656D6F47
:1032B0007665206D6174657269616C0043414E43AF
:1032C000454C00524541445900250046616E3A2064
:1032D00000430043002500466C6F773A006D6D0097
:1032E0004D4154455249414C006D617465726961AC
:1032F0006C20696E73657274696F6E00436F6F6CDA
:10330000696E67207072696E746865616420666FAB
:10331000720048656174696E67207072696E7468C6
:1033200065616420666F720061626F766520746803
:1033300065206172726F772E00796F7572206D61F2
:103340006368696E652C0066726F6D207468652015
:103350006261636B73696465206F6600496E7365B3
:103360007274206E6577206D6174657269616C009E
:1033700043414E43454C00524541445900466F720B
:1033800077617264696E67206D6174657269616CE2
:1033900000636F6D6573206F757420746865206EAF
:1033A0006F7A7A6C6500576169742074696C6C205F
:1033B0006D6174657269616C0043414E43454C0018
:1033C000524541445900696E204D4154455249418E
:1033D0004C2E54585400746F207468652053442058
:1033E00063617264005361766564206D6174657217
:1033F00069616C73004F6B000A0A006469616D6556
:103400007465723D000A00666C6F773D000A0066C5
:10341000616E5F73706565643D000A006265645F9C
:1034200074656D70657261747572653D000A007433
:10343000656D70657261747572653D000A006E613C
:103440006D653D005B6D6174657269616C5D0A005C
:1034500052656164696E6720636172642E2E2E006E
:10346000506C6561736520696E7365727420636169
:103470007264004E6F2053442D4341524421005248
:103480006573656E643A20006F6B0000E4D7C3D7A4
:1034900011241FBECFEFD1E2DEBFCDBF00E00CBFD5
:1034A00013E0A0E0B2E0E6E8F9EC01E00BBF02C0F7
:1034B00007900D92AC31B107D9F729E1ACE1B3E047
:1034C00001C01D92AD32B207E1F71AE1C7E4DAE1BB
:1034D00000E006C021970109802FFE010E9423E42D
:1034E000C634D10780E00807A9F70E947ECB0C9470
:1034F000B2E40C9400002F923F924F925F926F9231
:103500007F928F929F92AF92BF92CF92DF92EF9273
:10351000FF920F931F93CF93DF93CDB7DEB7CB56B8
:10352000D1090FB6F894DEBF0FBECDBF109241088F
:1035300087E40E946E46F82E882309F419C40E947D
:1035400094460E94B4E16A30710509F48EC084F497
:103550006230710581F124F477FF23C00C94933518
:103560006330710581F164307105C1F10C949335BC
:103570006A35710509F4BCC354F46B30710509F464
:103580000AC16C31710509F47CC10C9493356B351B
:10359000710509F4B1C36C35710509F4B2C30C941B
:1035A00093358091FA03811106C00E9415C90E94CB
:1035B00056C80C946F3B8091FA03811104C00E949D
:1035C00079CA81E007C08091FA03811107C00E9487
:1035D00079CA80E00E9416C50C946F3B80E50E947A
:1035E0006E46882339F00E9494460E94BAE16B012E
:1035F0007C0103C0C12CD12C760183E50E946E466C
:10360000882361F00E94944620E030E04AE754E4C9
:103610000E947DD80E94BAE16B017C010E94835612
:103620000E94D84FC60ED71EE81EF91E0E94D84F22
:1036300060931319709314198093151990931619A8
:1036400081E0809341080E94D84F6C157D058E055E
:103650009F0510F00C9493350E947B530E9470C418
:103660000E942B8C0E94F099EECF809188078111E7
:103670000C9493358091710890917208A091730811
:10368000B09174088093CA0F9093CB0FA093CC0F86
:10369000B093CD0F8091750890917608A09177082E
:1036A000B09178088093CE0F9093CF0FA093D00F56
:1036B000B093D10F8091790890917A08A0917B08FE
:1036C000B0917C088093D20F9093D30FA093D40F26
:1036D000B093D50FC0907D08D0907E08E0907F0811
:1036E000F0908008E091990824E0E29FF001112415
:1036F000EB56F74F208131814281538160912F0237
:103700007091300280913102909132020E9443E127
:103710009B01AC01C701B6010E9461E09B01AC01B5
:103720006093D60F7093D70F8093D80F9093D90FD3
:103730008090390290903A02A0903B02B0903C02F7
:1037400080912B0290912C02A0912D02B0912E021B
:103750008093390290933A02A0933B02B0933C02CB
:10376000C701B6010E9461E06093F5187093F618E6
:103770008093F7189093F81881E0809388070E944F
:1037800056C88092390290923A02A0923B02B092BF
:103790003C020C94933580918807882311F40C9493
:1037A00093358091710890917208A0917308B0913F
:1037B00074088093CA0F9093CB0FA093CC0FB09353
:1037C000CD0F8091750890917608A0917708B091FF
:1037D00078088093CE0F9093CF0FA093D00FB09323
:1037E000D10F8091790890917A08A0917B08B091CF
:1037F0007C088093D20F9093D30FA093D40FB093F3
:10380000D50F2091F5183091F6184091F718509186
:10381000F81860917D0870917E0880917F089091E2
:1038200080080E9462E06093D60F7093D70F809358
:10383000D80F9093D90FC0903902D0903A02E090FF
:103840003B02F0903C028091420290914302A09191
:103850004402B09145028093390290933A02A093BA
:103860003B02B0933C02109288070E9456C8C09257
:103870003902D0923A02E0923B02F0923C020C9460
:10388000933585E0809341088091390290913A0206
:10389000A0913B02B0913C0280931E0390931F03C2
:1038A000A0932003B09321038091290290912A02D2
:1038B00090931D0380931C0384E690E090932A026A
:1038C000809329020E94D84F6093131970931419A2
:1038D000809315199093161911E010931502809199
:1038E000710890917208A0917308B0917408809348
:1038F000CA0F9093CB0FA093CC0FB093CD0F8091B4
:10390000750890917608A0917708B0917808809317
:10391000CE0F9093CF0FA093D00FB093D10F809183
:10392000790890917A08A0917B08B0917C088093E7
:10393000D20F9093D30FA093D40FB093D50F809153
:103940007D0890917E08A0917F08B09180088093B7
:10395000D60F9093D70FA093D80FB093D90F109292
:10396000390210923A0210923B0210923C0288E512
:103970000E946E46882311F080E009C089E50E940C
:103980006E468111F9CF8AE50E946E4681278093A9
:103990000402882309F4F4C010927108109272088E
:1039A000109273081092740810927508109276089D
:1039B00010927708109278081092790810927A087D
:1039C00010927B0810927C080E94247F80E090E88F
:1039D000ACEAB3EC8093CA0F9093CB0FA093CC0FBB
:1039E000B093CD0F80E090E6A8EAB3E48093CE0FC9
:1039F0009093CF0FA093D00FB093D10F80E090E8B9
:103A0000ACEAB3E48093D20F9093D30FA093D40F7A
:103A1000B093D50F80E090E8ABEBB5E4809339022A
:103A200090933A02A0933B02B0933C0249E9C42E22
:103A300048E0D42EE12CF12C08EC12E426ED3FE016
:103A400042ED5FE06EEC7FE08AEC9FE00E94779BA6
:103A50000E9483560E94F2BC80E090E00E943646AD
:103A600081E090E00E94364682E090E00E94364677
:103A70000E94247F8091710890917208A091730830
:103A8000B09174088093CA0F9093CB0FA093CC0F82
:103A9000B093CD0F8091750890917608A09177082A
:103AA000B09178088093CE0F9093CF0FA093D00F52
:103AB000B093D10F8091790890917A08A0917B08FA
:103AC000B0917C088093D20F9093D30FA093D40F22
:103AD000B093D50F20E030E040E752E46091390226
:103AE00070913A0280913B0290913C020E9443E126
:103AF0007B018C0126ED3FE042ED5FE06EEC7FE064
:103B00008AEC9FE00E94779B1092390210923A0251
:103B100010923B0210923C020E9483560E94F2BC1B
:103B20008091CA0F9091CB0FA091CC0FB091CD0F87
:103B30008093710890937208A0937308B0937408EF
:103B40008091CE0F9091CF0FA091D00FB091D10F57
:103B50008093750890937608A0937708B0937808BF
:103B60008091D20F9091D30FA091D40FB091D50F27
:103B70008093790890937A08A0937B08B0937C088F
:103B80008091040281110C9498358AE50E946E465A
:103B900081110C9498358091040281110C949E350A
:103BA00088E50E946E46882331F089E50E946E46C2
:103BB00081110C949E358091040281110C946A3617
:103BC00088E50E946E4681110C946A368091040249
:103BD00081110C94703689E50E946E4681110C9417
:103BE000703688E50E946E468823D1F00E9489468F
:103BF000672B682B692BA1F00E9494462091C50C7D
:103C00003091C60C4091C70C5091C80C0E9462E0E4
:103C1000609371087093720880937308909374088E
:103C200089E50E946E468823D1F00E948946672B61
:103C3000682B692BA1F00E9494462091C90C309109
:103C4000CA0C4091CB0C5091CC0C0E9462E0609366
:103C500075087093760880937708909378088AE5C2
:103C60000E946E468823D1F00E948946672B682BFC
:103C7000692BA1F00E9494462091CD0C3091CE0C7E
:103C80004091CF0C5091D00C0E9462E06093790873
:103C900070937A0880937B0890937C080E94247F1D
:103CA0001092150280911E0390911F03A091200392
:103CB000B09121038093390290933A02A0933B0282
:103CC000B0933C0280911C0390911D0390932A02B3
:103CD000809329020E94D84F60931319709314198E
:103CE00080931519909316190E94F2BC0C94933589
:103CF0001092FE180C94933581E08093FE180C947A
:103D0000933585E40E946E46811102C00E9483565D
:103D100023EFC22E22E0D22E31E7E32E38E0F32E3D
:103D200010E0D6018D916D010E946E468823C1F08E
:103D3000133061F40E949446F7016083718382839B
:103D400093838DE798E00E94B7BD0AC00E94944615
:103D5000D7016D937D938D939C9313970E94247F3D
:103D60001F5FB4E0EB0EF11C1430D9F60C949335C0
:103D70008DE40E946E46882311F40C941F330E9438
:103D800094460E94B4E16C38710509F416C40CF035
:103D9000AAC06035710509F45DC60CF04CC06731EE
:103DA000710509F4F2C134F56231710509F45FC699
:103DB0009CF477FF02C00C949335623071050CF4CB
:103DC00076C16131710511F00C94933515984698C0
:103DD000439840980C9493356531710509F4C9C135
:103DE0000CF0CBC16431710511F00C949335E7E40C
:103DF000F6E076C16B31710509F405C23CF4693116
:103E0000710509F4EEC10CF4D7C1EFC16E31710533
:103E100009F4A8C234F46C31710509F470C20C9431
:103E200093356F31710509F40BC36A32710509F4DA
:103E300063C30C9493356A36710509F496C524F56D
:103E40006435710509F413C654F46235710509F43B
:103E500005C60CF007C60A9A12980C9493356C3577
:103E6000710509F457C634F46535710509F437C690
:103E70000C9493356836710509F478C36936710579
:103E800009F4B7C30C9493356337710509F4C8C6B8
:103E90008CF46D36710509F452C46237710509F46A
:103EA000E0C66B36710511F00C9493351092080D35
:103EB0000C9493356737710509F49CC734F4653762
:103EC000710509F4BCC60C9493356837710509F483
:103ED0008DC76937710511F00C94933581E080939B
:103EE00015020C949335643FE1E07E0711F40C94C5
:103EF000E92D0CF060C0613D710511F40C94A0280F
:103F00004CF56C3C710511F40C94AD277CF4693CC4
:103F1000710509F4E2C76B3C710511F40C948F270D
:103F20006E3B710511F00C94933562C46E3C7105C3
:103F300011F40C942F2814F40C94CF276F3C7105C6
:103F400011F40C944D28603D710511F40C947E28F9
:103F50000C9493356D3221E0720711F40C94B92959
:103F600094F46D3D710511F40C9415296C3241E007
:103F7000740711F40C942C296C3D710511F00C940C
:103F800093350C9404296F3251E0750711F40C94A9
:103F90009A2A14F40C94852A603991E0790711F477
:103FA0000C94E62D6139714011F00C9493350E9408
:103FB000FA550C949335603AB3E07B0709F40AC2D2
:103FC0009CF56935F2E07F0711F40C94F22D94F41E
:103FD000663F31E0730711F40C94EF2D14F40C9448
:103FE000EC2D673F714011F00C9493350E942549E8
:103FF0000C9493356E3582E0780711F40C94BA3046
:104000003CF46D35724011F40C9401300C949335EE
:104010006B38B3E07B0711F40C9477316B39734044
:1040200009F4AEC10C9493356231F7E27F0711F4C5
:104030000C94FA3124F5603137E2730711F40C94D3
:10404000B53114F00C94B831673E734011F00C9404
:1040500093351092FA038091090D90910A0DA09169
:104060000B0DB0910C0D8093FB039093FC03A09378
:10407000FD03B093FE030E94D3CA0C9493356431C0
:1040800087E2780711F40C947B3214F40C944B32D1
:104090006531A7E27A0711F40C94AB326A317742AA
:1040A00011F00C949335EAEAF4E00C94E23281E0EA
:1040B0008093C80A8091C80A882311F40C94933520
:1040C0000E947B530E9470C40E942B8C0E94F09926
:1040D000F1CF9091C00095FFFCCF8093C600319640
:1040E00084918111F6CF8091C00085FFFCCF8AE0DA
:1040F0008093C6001092BE0C1092BD0C40E050E0C0
:10410000BA018AEF9AE00E944C918BE1EAEFFAE063
:10411000DE01159601900D928A95E1F78091F80ADB
:104120009091F90A9C838B838FED92E09A83898327
:10413000BE016F5F7F4F8BE193E00E9480B3CE01A1
:1041400001960E9408A9E9E3F6E08491882341F0F2
:104150009091C00095FFFCCF8093C6003196F5CFBB
:104160008091C00085FFFCCF8AE08093C6000C944C
:1041700093350E94B67D0C9493351092C70A109225
:10418000C80A1092F50A0C9493350091FF03109120
:1041900000040C5F1F4F6AE270E0C8010E9478E4DF
:1041A000009719F0FC013197108240E061E0C801EE
:1041B0000E9493B10C9493358091F50A882329F0DD
:1041C00081E08093C70A1092C80A0E94D84F60937A
:1041D0006A0370936B0380936C0390936D030C944C
:1041E00093350E9473B30C9493358091F50A88231C
:1041F00011F40C94933580916F0C882311F40C9476
:1042000076360C9493358091F50A882309F442C0E0
:10421000E1EBF2E08491882341F09091C00095FF9A
:10422000FCCF8093C6003196F5CF8091C70A8823D2
:1042300049F06091B80C7091B90C8091BA0C9091D2
:10424000BB0C08C06091B00C7091B10C8091B20CA5
:104250009091B30C4AE00E94BA7BEFEAF2E08491BD
:10426000882341F09091C00095FFFCCF8093C60059
:104270003196F5CF6091B00C7091B10C8091B20C79
:104280009091B30C4AE00E94BA7B8091C00085FFF8
:10429000FCCF11C0EFE9F2E08491882341F09091C6
:1042A000C00095FFFCCF8093C6003196F5CF80917A
:1042B000C00085FFFCCF8AE08093C60060916F0C40
:1042C000662311F40C949335E3E9F2E0849188239A
:1042D00041F09091C00095FFFCCF8093C6003196CD
:1042E000F5CF70E080E090E00E942F7C8091C000CC
:1042F00085FFFCCF8AE08093C6000C9493358091B3
:10430000FF03909100046AE270E004960E9478E452
:104310008C01892BE1F020911A0730911B0740E6B0
:10432000429FC001439F900D11246EE470E0865EB1
:104330009B4F0E9478E460E270E00E9478E401966E
:10434000909300048093FF03F801319710828091CD
:10435000FF039091000440E060E004960E9493B156
:104360000C9493358091F50A882311F40C949335BD
:1043700080916F0C882311F40C948D360C94933536
:104380000091FF03109100040C5F1F4F6AE270E080
:10439000C8010E9478E4009719F0FC01319710825F
:1043A00040E061E0C8010E9493B18091F50A882342
:1043B00029F081E08093C70A1092C80A0E94D84F62
:1043C00060936A0370936B0380936C0390936D0307
:1043D0000C9493358091FF03909100046AE270E0A1
:1043E00005960E9478E48C01892BE1F020911A0750
:1043F00030911B0740E6429FC001439F900D11245E
:104400006EE470E0865E9B4F0E9478E460E270E0AC
:104410000E9478E40196909300048093FF03F801D2
:10442000319710828091FF039091000421E0209346
:10443000C60A40E060E005960E9493B10C94933563
:104440000E94D84F60936E0370936F038093700344
:104450009093710300916A0310916B0320916C0398
:1044600030916D03601B710B820B930B28EE33E0D0
:1044700040E050E00E9426E0CA01B9012CE330E0A0
:1044800040E050E00E9426E07F936F933F932F938C
:104490008AE296E09F938F938E010F5F1F4F1F93C9
:1044A0000F930E94A5DCEBE4F7E084910FB6F8943B
:1044B000DEBF0FBECDBFEBE4F7E0882349F090915B
:1044C000C00095FFFCCF8093C60031968491F5CF54
:1044D000F8018191882339F09091C00095FFFCCFBD
:1044E0008093C600F6CF8091C00085FFFCCF8AE0A4
:1044F0008093C6000C94933583E50E946E46882312
:1045000011F40C9493350E9494460E94B4E1F62E67
:10451000E72E862F9E2D8C0180E50E946E46882313
:1045200031F00F3F110509F010F40C94FE3788E0CC
:1045300090E0EAE5F2E0219131912817390711F472
:104540000C94933522E0E239F207A9F78730910500
:1045500019F4F092080D04C097FF02C00C94933533
:104560006F2D7E2D0E94EC4E0C94933588E690E0E2
:104570000E9410A981110C94933583E50E946E4628
:10458000882311F40C94933500910D0D0E949446EC
:1045900010E00E94B4E1F801EE0FFF1FE65CF84F57
:1045A000718360836430714014F40C94933584E01B
:1045B00091E0918380830C94933583E50E946E464D
:1045C000882311F40C9493350E9494460E94B4E120
:1045D00070933D0760933C076337710514F40C94A6
:1045E000933583E790E090933D0780933C070C94CC
:1045F000933589E690E00E9410A981110C949335BF
:10460000E4E2F6E08491882341F09091C00095FFA8
:10461000FCCF8093C6003196F5CFE0910D0D44E0BC
:10462000E49FF0011124EA5CF84F6081718182817E
:10463000938141E00E94417CE1E2F6E0849188238D
:1046400041F09091C00095FFFCCF8093C600319659
:10465000F5CFE0910D0DF0E0EE0FFF1FE65CF84F97
:1046600060817181072E000C880B990B0E94DADCA7
:1046700041E00E94417CEDE1F6E08491882341F025
:104680009091C00095FFFCCF8093C6003196F5CF86
:10469000609132077091330780913407909135070C
:1046A00041E00E94417CEAE1F6E08491882341F0F8
:1046B0009091C00095FFFCCF8093C6003196F5CF56
:1046C00060913C0770913D07072E000C880B990BF9
:1046D0000E94DADC41E00E94417CE6E1F6E0849150
:1046E000882341F09091C00095FFFCCF8093C600D5
:1046F0003196F5CFE0910D0DF0E0E05CF84F608170
:1047000070E080E090E00E942F7CE1E1F6E084918F
:10471000882341F09091C00095FFFCCF8093C600A4
:104720003196F5CF60913F0770E080E090E00E9405
:104730002F7C8091C00085FFFCCF0C941A338DE64E
:1047400090E00E9410A981110C94933583E080932E
:10475000410883E50E946E468823A9F000910D0D63
:104760000E94944610E00E94B4E1F801EE0FFF1F92
:10477000E65CF84F718360836430714024F084E01C
:1047800091E0918380830E94D84F2B013C01E091FE
:104790000D0D0E2F10E0F801EE0FFF1FE65CF84F35
:1047A00060817181072E000C880B990B0E94DADC66
:1047B000F801EE0FFF1FEE0FFF1FEA5CF84F11E04C
:1047C00020813181428153810E94A0E218160CF0B1
:1047D00010E088248A94982C540166E0262E66E026
:1047E000362E74E0E72E76E0F72E0AE00C949A3825
:1047F00084E08093410883E50E946E46882389F017
:104800000E9494460E94B4E170933D0760933C0778
:104810006337710534F083E790E090933D07809310
:104820003C070E94D84F4B015C0101E016E07DEF90
:10483000E72E75E0F72EE9EFCE2EE5E0DE2EFAE06A
:104840007F2E80913C0790913D070297BC01990F04
:10485000880B990B0E94DADC9B01AC016091320756
:104860007091330780913407909135070E94D4DC12
:1048700087FF6FC00E94D84FDC01CB0188199909CE
:10488000AA09BB09893E9340A105B10508F458C0A7
:10489000E091990824E0E29FF0011124EA5CF84FCE
:1048A0006081718182819381F8012491E1E0F6E0D9
:1048B000222349F03091C00035FFFCCF2093C60081
:1048C00031962491F5CF42E00E94417CF70184911A
:1048D000EDEFF5E0882349F09091C00095FFFCCF03
:1048E0008093C60031968491F5CF6091990870E06D
:1048F00080E090E00E942F7CF6018491E9EFF5E0E2
:10490000882349F09091C00095FFFCCF8093C600AA
:1049100031968491F5CF6091320770913307809181
:1049200034079091350741E00E94417C8091C0009E
:1049300085FFFCCF7092C6000E94D84F4B015C01EE
:104940000E947B530E9470C40E942B8C0E94F0999D
:1049500078CF0E94D84F60931319709314198093E5
:104960001519909316190C94933583E50E946E46A1
:10497000882309F461C00E9494466B017C018091F8
:104980003D02682F70E080E090E00E94DADC9B013D
:10499000AC01C701B6010E947DD820E030E048ECB0
:1049A00052E40E9443E120E030E0A9010E94D4DCFF
:1049B00087FD3BC00E9494466B017C0180913D02C3
:1049C000682F70E080E090E00E94DADC9B01AC018F
:1049D000C701B6010E947DD820E030E048EC52E4E7
:1049E0000E9443E120E030E04FE753E40E94A0E260
:1049F0001816ECF00E9494466B017C0180913D02F8
:104A0000682F70E080E090E00E94DADC9B01AC014E
:104A1000C701B6010E947DD820E030E048EC52E4A6
:104A20000E9443E10E94BAE103C060E001C06FEF61
:104A30006093080D0C94933580913D02FFEF8F9F9A
:104A4000C001112464E670E00E94F4E36093080D55
:104A50000C9493350A9A129A0C9493351092021979
:104A60000C94933581E0809302190C94933583E57F
:104A70000E946E468823A1F00E94944620E030E018
:104A80004AE754E40E947DD80E94BAE1609356023E
:104A90007093570280935802909359020C94933567
:104AA00088E50E946E4681110C94483989E50E9480
:104AB0006E4681110C9448398AE50E946E46811138
:104AC0000C94483985E40E946E4681110C94483953
:104AD0000E948356409A0E9492560C94933583E527
:104AE0000E946E46882311F40C9493350E949446DC
:104AF00020E030E04AE754E40E947DD80E94BAE109
:104B000060930F19709310198093111990931219D3
:104B10000C94933553EF852E52E0952E0AEA18E057
:104B20006CEEA62E6CE0B62E2EED33E13DAF2CAF31
:104B3000312CD4018D914D010E946E46882309F4D9
:104B40005EC0B3E03B1254C00E9494462B013C016E
:104B500020E030E040EA51E40E94D4DC87FF41C00D
:104B6000A3019201F80160817181828193810E9489
:104B700043E16B017C019B01AC016091D80C709109
:104B8000D90C8091DA0C9091DB0C0E947DD8609357
:104B9000D80C7093D90C8093DA0C9093DB0CA7019E
:104BA0009601D5016D917D918D919C910E947DD84A
:104BB000F5016083718382839383ACADBDAD6D914C
:104BC0007D918D919C910E94D8DCA70196010E9455
:104BD0007DD80E94BAE1ECADFDAD60837183828324
:104BE0009383D8014D925D926D927C92139707C08A
:104BF0000E949446F8016083718382839383339487
:104C00000C5F1F4FF4E0AF0EB11C2CAD3DAD2C5F1F
:104C10003F4F3DAF2CAF34E033128BCF0C94933524
:104C2000E3E5F5E08491882311F40C949335909199
:104C3000C00095FFFCCF8093C6003196F3CF8091E2
:104C4000FF03909100046AE270E005960E9478E408
:104C5000009711F40C949335FC01319710820C9459
:104C60009335E0E5F5E08491882341F09091C00010
:104C700095FFFCCF8093C6003196F5CF6091710807
:104C800070917208809173089091740842E00E94BC
:104C9000417CEDE4F5E08491882341F09091C000DF
:104CA00095FFFCCF8093C6003196F5CF60917508D3
:104CB00070917608809177089091780842E00E9480
:104CC000417CEAE4F5E08491882341F09091C000B2
:104CD00095FFFCCF8093C6003196F5CF609179089F
:104CE00070917A0880917B0890917C0842E00E9444
:104CF000417CE7E4F5E08491882341F09091C00085
:104D000095FFFCCF8093C6003196F5CF60917D086A
:104D100070917E0880917F089091800842E00E9407
:104D2000417CECE3F5E08491882341F09091C00050
:104D300095FFFCCF8093C6003196F5CF0E94EC55CD
:104D40000E94DADC2091AA083091AB084091AC08AF
:104D50005091AD080E9443E142E00E94417CE9E3AA
:104D6000F5E08491882341F09091C00095FFFCCF3D
:104D70008093C6003196F5CF81E00E94EC550E94E9
:104D8000DADC2091AE083091AF084091B008509124
:104D9000B1080E9443E142E00E94417CE6E3F5E075
:104DA0008491882341F09091C00095FFFCCF8093BF
:104DB000C6003196F5CF82E00E94EC550E94DADC05
:104DC0002091B2083091B3084091B4085091B508D1
:104DD0000E9443E142E00E94417C8091C00085FF37
:104DE000FCCF8AE08093C6000C9493351092150294
:104DF0000C949335EDE1F5E08491882341F0909196
:104E0000C00095FFFCCF8093C6003196F5CF80910E
:104E1000C00085FFFCCF8AE08093C600E5E1F5E0A5
:104E20008491882341F09091C00095FFFCCF80933E
:104E3000C6003196F5CF009B03C0E6E0F5E00AC05E
:104E4000EBE0F5E007C09091C00095FFFCCF8093A8
:104E5000C600319684918111F6CFEEEFF4E0849193
:104E6000882341F09091C00095FFFCCF8093C6004D
:104E70003196F5CF049B03C0EFEEF4E00AC0E4EFF7
:104E8000F4E007C09091C00095FFFCCF8093C6006E
:104E9000319684918111F6CFE7EEF4E08491882376
:104EA00041F09091C00095FFFCCF8093C6003196F1
:104EB000F5CF079B03C0E8EDF4E00AC0EDEDF4E0A8
:104EC00007C09091C00095FFFCCF8093C60031963B
:104ED00084918111F6CF0C9493353EEEE32E33E1AD
:104EE000F32E03EF12E044E0D42ED00ED8018D91C2
:104EF0008D010E946E46882349F00E9494460E94CC
:104F0000BAE1F7016083718382839383F4E0EF0E4B
:104F1000F11CD012EBCF0E9468BD0C9493359CEE2F
:104F2000E92E9CE0F92E03EF12E024E0D22ED00E01
:104F3000D8018D918D010E946E46882339F00E9420
:104F40009446F7016083718382839383F4E0EF0ECC
:104F5000F11CD012EDCF0C94933583E50E946E4680
:104F6000882351F00E9494466093E40C7093E50C02
:104F70008093E60C9093E70C84E50E946E468823AC
:104F800011F40C9493350E9494466093E80C70934E
:104F9000E90C8093EA0C9093EB0C0C94933583E529
:104FA0000E946E46882351F00E9494466093000D43
:104FB0007093010D8093020D9093030D84E50E9480
:104FC0006E46882351F00E9494466093040D7093BE
:104FD000050D8093060D9093070D82E40E946E46A6
:104FE000882361F00E9494460E94BAE16093FC0C11
:104FF0007093FD0C8093FE0C9093FF0C88E50E944B
:105000006E46882351F00E9494466093E00C7093A2
:10501000E10C8093E20C9093E30C8AE50E946E46CB
:10502000882351F00E9494466093DC0C7093DD0C51
:105030008093DE0C9093DF0C85E40E946E468823FB
:1050400011F40C9493350E9494466093D80C70939D
:10505000D90C8093DA0C9093DB0C0C94933515ECFF
:10506000E12E1CE0F12E03EF12E083E0D82ED00EEB
:10507000D8018D918D010E946E46882339F00E94DF
:105080009446F7016083718382839383F4E0EF0E8B
:10509000F11CD012EDCF0C94933583E50E946E463F
:1050A000882351F00E94944660932F02709330023F
:1050B000809331029093320286E40E946E468823E8
:1050C00051F00E94944660932B0270932C028093BF
:1050D0002D0290932E028AE50E946E46882311F4D9
:1050E0000C9493350E949446609346027093470255
:1050F00080934802909349020C94933583E50E9473
:105100006E46882351F00E9494466093F518709380
:10511000F6188093F7189093F81886E40E946E466C
:10512000882311F40C9493350E94944660934202B4
:105130007093430280934402909345020C949335FC
:1051400083E50E946E46882311F40C9493350E94E7
:1051500094460E94B4E16115710551F0613071050A
:1051600069F481E08093F918109288070C949335C4
:105170001092F918109288070C949335EBE4F7E03D
:105180008491882341F09091C00095FFFCCF8093DB
:10519000C6003196F5CFE5ECF4E08491882341F028
:1051A0009091C00095FFFCCF8093C6003196F5CF5B
:1051B00080911A0790911B0720E6289FF001299FF4
:1051C000F00D1124E65EFB4F8191882339F0909118
:1051D000C00095FFFCCF8093C600F6CFE3ECF4E06F
:1051E0008491882341F09091C00095FFFCCF80937B
:1051F000C6003196F5CF8091C00085FFFCCF8AE0D4
:105200008093C6000C94933583E50E946E468823F4
:1052100011F40C9493350E9494460E94B4E170936B
:105220002A02609329020C94933583E50E946E460E
:10523000882311F40C9493350091990810E00E9492
:105240009446000F111F0D5C1D4F0E94B4E1D80160
:105250006D937C930C94933583E50E946E4688236E
:1052600031F00E9494460E94BAE17B0103C0AEE691
:10527000EA2EF12C80E50E946E46882311F40C94EE
:1052800061390E9494460E94BAE18B01E114F10455
:1052900009F443C0970140E050E060E271EA87E022
:1052A00090E00E9407E469017A01F22FED2DA70139
:1052B000013ABFE01B0710F000EA1FE09801A4EFDD
:1052C000B1E00E9452E02F2F3E2F0E9426E0B6014F
:1052D000CC0CDD1CCC0CDD1CE5E0CE1AD10880E046
:1052E00090E0DC0182179307A407B50711F40C9432
:1052F00093355B9A6230710518F0F6013197F1F73A
:105300005B986230710518F0F6013197F1F701965C
:10531000A11DB11DE7CF08EE13E06801E12CF12CCF
:105320000E94B34F4B015C01C114D104E104F104AC
:1053300011F40C9493350E94B34FDC01CB01881912
:105340009909AA09BB09883E9340A105B10560F3FC
:10535000F1E0CF1AD108E108F10828EE820E23E02F
:10536000921EA11CB11CC114D104E104F10419F76F
:10537000DBCF80E50E946E46882351F00E94944660
:1053800060931A0270931B0280931C0290931D027B
:1053900089E40E946E46882381F00E9494462DEB9A
:1053A00037E346E05DE30E947DD860930902709385
:1053B0000A0280930B0290930C0284E40E946E46D2
:1053C000882381F00E9494462DEB37E346E05DE3AD
:1053D0000E9443E1609316027093170280931802B3
:1053E0009093190283E40E946E46882351F00E9434
:1053F000944660930002709301028093020290939E
:1054000003020E94C755E0ECF4E08491882341F048
:105410009091C00095FFFCCF8093C6003196F5CFE8
:10542000ECEBF4E08491882341F09091C00095FF6B
:10543000FCCF8093C6003196F5CF60911A0270912F
:105440001B0280911C0290911D0242E00E94417C4F
:10545000E8EBF4E08491882341F09091C00095FF3F
:10546000FCCF8093C6003196F5CF2DEB37E346E0B5
:105470005DE36091090270910A0280910B029091A4
:105480000C020E9443E142E00E94417CE4EBF4E024
:105490008491882341F09091C00095FFFCCF8093C8
:1054A000C6003196F5CF2DEB37E346E05DE3609122
:1054B00016027091170280911802909119020E94B1
:1054C0007DD842E00E94417CE0EBF4E084918823A7
:1054D00041F09091C00095FFFCCF8093C6003196BB
:1054E000F5CF6091000270910102809102029091CB
:1054F000030242E00E94417C8091C00085FFFCCF06
:105500008AE08093C6000C94933583E50E946E4632
:10551000882319F00E94944603C060E070E0CB013C
:10552000609335027093360280933702909338026D
:105530000C94933585E40E946E46882341F00E94C6
:1055400094460E94B4E18B0177FF03C011C000E0D4
:1055500010E028961FAE289729961FAE299746E19E
:105560002A964FAF2A9753E42B965FAF2B970EC026
:1055700028961FAE289729961FAE29978CE82A9661
:105580008FAF2A9792E42B969FAF2B9783E50E94CB
:105590006E46882371F00E94944628966FAF289734
:1055A00029967FAF29972A968FAF2A972B969FAF80
:1055B0002B9783E40E946E46882349F00E9494460C
:1055C0000E94B4E1A7967FAF6EAFA79706C0A5E093
:1055D000B0E0A796BFAFAEAFA7970E94D84F27966F
:1055E0006CAF7DAF8EAF9FAF279702301105B4F03F
:1055F000EEEFF3E08491882341F09091C00095FF95
:10560000FCCF8093C6003196F5CF8091C00085FF16
:10561000FCCF8AE08093C6000C949335EBEEF3E068
:105620008491882341F09091C00095FFFCCF809336
:10563000C6003196F5CF8091C00085FFFCCF8AE08F
:105640008093C6000E942E508FE717FF64C080939E
:105650003F0727962CAD3DAD4EAD5FAD27976596C4
:105660002CAF3DAF4EAF5FAF6597AB962CAF3DAF64
:105670004EAF5FAFAB972C961FAE2C9730E466967B
:105680003FAF66974CE167964FAF679756E46896D1
:105690005FAF689769961FAE69976A961FAE6A9763
:1056A0006B961FAE6B976C961FAE6C978FE790E072
:1056B000A0E0B0E023968CAF9DAFAEAFBFAF239715
:1056C0007FE7472E512C612C712CA3961CAE1DAE8A
:1056D0001EAE1FAEA39791E06D969FAF6D9761963A
:1056E0001FAE1EAE61971CAE212C312C1EAED80110
:1056F000A05CB84FA596BFAFAEAFA597C801880F05
:10570000991F880F991FFC01EA5CF84F6F96FFAF55
:10571000EEAF6F9709C0F801E05CF84F808399CF36
:105720000E942B8C0E94F09980913E07882309F4F7
:105730005EC10E94595317FF0BC0F0913207FCAFB6
:105740002090330730903407209135072EAF0EC0DC
:105750006F96AEADBFAD6F97BC91BCAF6F96EEAD1F
:10576000FFAD6F9721803280F381FEAF2CAD322DDB
:10577000432D5EAD69966FAD69976A967FAD6A9766
:105780006B968FAD6B976C969FAD6C970E94A0E265
:10579000181674F02CAD69962FAF69976A962FAEE4
:1057A0006A976B963FAE6B973EAD6C963FAF6C972A
:1057B0002CAD322D432D5EAD2C966FAD2C97669699
:1057C0007FAD669767968FAD679768969FAD689730
:1057D0000E94D4DC87FD0EC04CAD2C964FAF2C97A9
:1057E00066962FAE669767963FAE67975EAD6896F2
:1057F0005FAF68976D968FAD6D97882309F475C07C
:1058000028962FAD289729963FAD29972A964FAD18
:105810002A972B965FAD2B976CAD722D832D9EAD85
:105820000E94A0E218160CF0E2C00E94D84FDC01E2
:10583000CB0127962CAD3DAD4EAD5FAD2797821BBA
:10584000930BA40BB50B89389341A105B10508F45E
:10585000CEC0D301C20123962CAD3DAD4EAD5FADA0
:105860002397821B930BA40BB50BB595A795979522
:10587000879517FF03C080933F0705C0A596EEAD3F
:10588000FFADA59780830E94D84F65966CAF7DAF22
:105890008EAF9FAF65979B01AC0127968CAD9DADF8
:1058A000AEADBFAD2797281B390B4A0B5B0BA396F8
:1058B0002CAF3DAF4EAF5FAFA39728969FAD289713
:1058C00069969FAF69972996AFAD29976A96AFAF52
:1058D0006A972A96BFAD2A976B96BFAF6B972B96A8
:1058E000EFAD2B976C96EFAF6C9728962FAD28975E
:1058F00029963FAD29972A964FAD2A972B965FADF3
:105900002B976CAD722D832D9EAD0E94D4DC87FD4C
:1059100002C00C94513B0E94D84FDC01CB0165962C
:105920002CAD3DAD4EAD5FAD6597821B930BA40BC7
:10593000B50B89389341A105B10510F40C94513B86
:105940000E94D84F27966CAF7DAF8EAF9FAF279741
:10595000DC01CB0165962CAD3DAD4EAD5FAD6597DD
:10596000821B930BA40BB50B61964EAD5FAD619797
:105970001416150614F40C94783923968CAD9DAD4D
:10598000AEADBFAD2397840D951DA61DB71DB59572
:10599000A7959795879517FD02C00C944A3B809375
:1059A0003F0761962EAD3FAD61972F5F3F4F6196E8
:1059B0003FAF2EAF619728963FAD28972C963FAF0B
:1059C0002C9729964FAD299766964FAF66972A96E2
:1059D0005FAD2A9767965FAF67972B968FAD2B9732
:1059E00068968FAF689791E06D969FAF6D9720E0B6
:1059F00030E040EA51E428966FAD289729967FADB4
:105A000029972A968FAD2A972B969FAD2B970E94A8
:105A100062E09B01AC016CAD722D832D9EAD0E94A6
:105A2000A0E21816B4F4EAE7F3E08491882341F089
:105A30009091C00095FFFCCF8093C6003196F5CFC2
:105A40008091C00085FFFCCF8AE08093C6000C9453
:105A500093350E94D84FDC01CB01AB962CAD3DAD08
:105A60004EAD5FADAB97821B930BA40BB50B813D85
:105A70009740A105B10508F44EC017FF10C0E09093
:105A80003F07F12CE4E7F3E084918823D9F090916B
:105A9000C00095FFFCCF8093C6003196F5CFA59648
:105AA000AEADBFADA597EC90F12CEEE6F3E084919E
:105AB000882341F09091C00095FFFCCF8093C600F1
:105AC0003196F5CF42E06CAD722D832D9EAD0E94D4
:105AD000417CEAE6F3E08491882341F09091C00094
